{
  "abi": [
    {
      "inputs": [],
      "stateMutability": "nonpayable",
      "type": "constructor"
    },
    {
      "inputs": [],
      "name": "AlreadyInitialized",
      "type": "error"
    },
    {
      "anonymous": false,
      "inputs": [
        {
          "indexed": false,
          "internalType": "address",
          "name": "daoAddress",
          "type": "address"
        },
        {
          "indexed": false,
          "internalType": "string",
          "name": "daoURI",
          "type": "string"
        }
      ],
      "name": "DAOURIUpdate",
      "type": "event"
    },
    {
      "anonymous": false,
      "inputs": [
        {
          "indexed": true,
          "internalType": "bytes32",
          "name": "role",
          "type": "bytes32"
        },
        {
          "indexed": true,
          "internalType": "bytes32",
          "name": "previousAdminRole",
          "type": "bytes32"
        },
        {
          "indexed": true,
          "internalType": "bytes32",
          "name": "newAdminRole",
          "type": "bytes32"
        }
      ],
      "name": "RoleAdminChanged",
      "type": "event"
    },
    {
      "anonymous": false,
      "inputs": [
        {
          "indexed": true,
          "internalType": "bytes32",
          "name": "role",
          "type": "bytes32"
        },
        {
          "indexed": true,
          "internalType": "address",
          "name": "account",
          "type": "address"
        },
        {
          "indexed": true,
          "internalType": "address",
          "name": "sender",
          "type": "address"
        }
      ],
      "name": "RoleGranted",
      "type": "event"
    },
    {
      "anonymous": false,
      "inputs": [
        {
          "indexed": true,
          "internalType": "bytes32",
          "name": "role",
          "type": "bytes32"
        },
        {
          "indexed": true,
          "internalType": "address",
          "name": "account",
          "type": "address"
        },
        {
          "indexed": true,
          "internalType": "address",
          "name": "sender",
          "type": "address"
        }
      ],
      "name": "RoleRevoked",
      "type": "event"
    },
    {
      "inputs": [],
      "name": "DEFAULT_ADMIN_ROLE",
      "outputs": [
        {
          "internalType": "bytes32",
          "name": "",
          "type": "bytes32"
        }
      ],
      "stateMutability": "view",
      "type": "function"
    },
    {
      "inputs": [],
      "name": "MANAGER_ROLE",
      "outputs": [
        {
          "internalType": "bytes32",
          "name": "",
          "type": "bytes32"
        }
      ],
      "stateMutability": "view",
      "type": "function"
    },
    {
      "inputs": [],
      "name": "daoURI",
      "outputs": [
        {
          "internalType": "string",
          "name": "daoURI_",
          "type": "string"
        }
      ],
      "stateMutability": "view",
      "type": "function"
    },
    {
      "inputs": [
        {
          "internalType": "bytes32",
          "name": "role",
          "type": "bytes32"
        }
      ],
      "name": "getRoleAdmin",
      "outputs": [
        {
          "internalType": "bytes32",
          "name": "",
          "type": "bytes32"
        }
      ],
      "stateMutability": "view",
      "type": "function"
    },
    {
      "inputs": [
        {
          "internalType": "bytes32",
          "name": "role",
          "type": "bytes32"
        },
        {
          "internalType": "address",
          "name": "account",
          "type": "address"
        }
      ],
      "name": "grantRole",
      "outputs": [],
      "stateMutability": "nonpayable",
      "type": "function"
    },
    {
      "inputs": [
        {
          "internalType": "bytes32",
          "name": "role",
          "type": "bytes32"
        },
        {
          "internalType": "address",
          "name": "account",
          "type": "address"
        }
      ],
      "name": "hasRole",
      "outputs": [
        {
          "internalType": "bool",
          "name": "",
          "type": "bool"
        }
      ],
      "stateMutability": "view",
      "type": "function"
    },
    {
      "inputs": [
        {
          "internalType": "address",
          "name": "_daoAddress",
          "type": "address"
        },
        {
          "internalType": "address",
          "name": "_manager",
          "type": "address"
        },
        {
          "internalType": "string",
          "name": "daoURI_",
          "type": "string"
        },
        {
          "internalType": "address",
          "name": "_eip4824Index",
          "type": "address"
        }
      ],
      "name": "initialize",
      "outputs": [],
      "stateMutability": "nonpayable",
      "type": "function"
    },
    {
      "inputs": [
        {
          "internalType": "address",
          "name": "_daoAddress",
          "type": "address"
        },
        {
          "internalType": "string",
          "name": "daoURI_",
          "type": "string"
        },
        {
          "internalType": "address",
          "name": "_eip4824Index",
          "type": "address"
        }
      ],
      "name": "initialize",
      "outputs": [],
      "stateMutability": "nonpayable",
      "type": "function"
    },
    {
      "inputs": [
        {
          "internalType": "bytes32",
          "name": "role",
          "type": "bytes32"
        },
        {
          "internalType": "address",
          "name": "account",
          "type": "address"
        }
      ],
      "name": "renounceRole",
      "outputs": [],
      "stateMutability": "nonpayable",
      "type": "function"
    },
    {
      "inputs": [
        {
          "internalType": "bytes32",
          "name": "role",
          "type": "bytes32"
        },
        {
          "internalType": "address",
          "name": "account",
          "type": "address"
        }
      ],
      "name": "revokeRole",
      "outputs": [],
      "stateMutability": "nonpayable",
      "type": "function"
    },
    {
      "inputs": [
        {
          "internalType": "string",
          "name": "daoURI_",
          "type": "string"
        }
      ],
      "name": "setURI",
      "outputs": [],
      "stateMutability": "nonpayable",
      "type": "function"
    },
    {
      "inputs": [
        {
          "internalType": "bytes4",
          "name": "interfaceId",
          "type": "bytes4"
        }
      ],
      "name": "supportsInterface",
      "outputs": [
        {
          "internalType": "bool",
          "name": "",
          "type": "bool"
        }
      ],
      "stateMutability": "view",
      "type": "function"
    }
  ],
  "bytecode": {
    "object": "0x608060405234801561001057600080fd5b50600280546001600160a01b03191661dead179055610d11806100346000396000f3fe608060405234801561001057600080fd5b50600436106100b45760003560e01c80637034731b116100715780637034731b146101605780637bb7c0d81461017557806391d1485414610188578063a217fddf1461019b578063d547741f146101a3578063ec87621c146101b657600080fd5b806301ffc9a7146100b957806302fe5305146100e157806309c26fb1146100f6578063248a9ca3146101095780632f2ff15d1461013a57806336568abe1461014d575b600080fd5b6100cc6100c73660046108cb565b6101cb565b60405190151581526020015b60405180910390f35b6100f46100ef366004610998565b6101f6565b005b6100f46101043660046109f1565b61021b565b61012c610117366004610a60565b60009081526020819052604090206001015490565b6040519081526020016100d8565b6100f4610148366004610a79565b610244565b6100f461015b366004610a79565b61026e565b6101686102ed565b6040516100d89190610afd565b6100f4610183366004610b10565b61037f565b6100cc610196366004610a79565b61044d565b61012c600081565b6100f46101b1366004610a79565b610476565b61012c600080516020610cbc83398151915281565b60006001600160e01b03198216637034731b60e01b14806101f057506101f08261049b565b92915050565b600080516020610cbc83398151915261020e816104d0565b610217826104dd565b5050565b61022684838361037f565b61023e600080516020610cbc8339815191528461053b565b50505050565b60008281526020819052604090206001015461025f816104d0565b610269838361053b565b505050565b6001600160a01b03811633146102e35760405162461bcd60e51b815260206004820152602f60248201527f416363657373436f6e74726f6c3a2063616e206f6e6c792072656e6f756e636560448201526e103937b632b9903337b91039b2b63360891b60648201526084015b60405180910390fd5b61021782826105bf565b6060600180546102fc90610b6e565b80601f016020809104026020016040519081016040528092919081815260200182805461032890610b6e565b80156103755780601f1061034a57610100808354040283529160200191610375565b820191906000526020600020905b81548152906001019060200180831161035857829003601f168201915b5050505050905090565b6002546001600160a01b0316156103a85760405162dc149f60e41b815260040160405180910390fd5b600280546001600160a01b0319166001600160a01b0385161790556103cc826104dd565b6103d760008461053b565b6103ef600080516020610cbc8339815191528461053b565b60405163ea5095b160e01b81523060048201526001600160a01b0382169063ea5095b190602401600060405180830381600087803b15801561043057600080fd5b505af1158015610444573d6000803e3d6000fd5b50505050505050565b6000918252602082815260408084206001600160a01b0393909316845291905290205460ff1690565b600082815260208190526040902060010154610491816104d0565b61026983836105bf565b60006001600160e01b03198216637965db0b60e01b14806101f057506301ffc9a760e01b6001600160e01b03198316146101f0565b6104da8133610624565b50565b80516104f0906001906020840190610832565b506002546040517f70a842976e7a4dbe172ab201a1d23ff7f220e6edea7c32dc4e15b9210fef09dd91610530916001600160a01b03909116908490610ba8565b60405180910390a150565b610545828261044d565b610217576000828152602081815260408083206001600160a01b03851684529091529020805460ff1916600117905561057b3390565b6001600160a01b0316816001600160a01b0316837f2f8788117e7eff1d82e926ec794901d17c78024a50270940304540a733656f0d60405160405180910390a45050565b6105c9828261044d565b15610217576000828152602081815260408083206001600160a01b0385168085529252808320805460ff1916905551339285917ff6391f5c32d9c69d2a47ea670b442974b53935d1edc7fd64eb21e047a839171b9190a45050565b61062e828261044d565b6102175761063b8161067d565b61064683602061068f565b604051602001610657929190610bcc565b60408051601f198184030181529082905262461bcd60e51b82526102da91600401610afd565b60606101f06001600160a01b03831660145b6060600061069e836002610c57565b6106a9906002610c76565b67ffffffffffffffff8111156106c1576106c16108f5565b6040519080825280601f01601f1916602001820160405280156106eb576020820181803683370190505b509050600360fc1b8160008151811061070657610706610c8e565b60200101906001600160f81b031916908160001a905350600f60fb1b8160018151811061073557610735610c8e565b60200101906001600160f81b031916908160001a9053506000610759846002610c57565b610764906001610c76565b90505b60018111156107dc576f181899199a1a9b1b9c1cb0b131b232b360811b85600f166010811061079857610798610c8e565b1a60f81b8282815181106107ae576107ae610c8e565b60200101906001600160f81b031916908160001a90535060049490941c936107d581610ca4565b9050610767565b50831561082b5760405162461bcd60e51b815260206004820181905260248201527f537472696e67733a20686578206c656e67746820696e73756666696369656e7460448201526064016102da565b9392505050565b82805461083e90610b6e565b90600052602060002090601f01602090048101928261086057600085556108a6565b82601f1061087957805160ff19168380011785556108a6565b828001600101855582156108a6579182015b828111156108a657825182559160200191906001019061088b565b506108b29291506108b6565b5090565b5b808211156108b257600081556001016108b7565b6000602082840312156108dd57600080fd5b81356001600160e01b03198116811461082b57600080fd5b634e487b7160e01b600052604160045260246000fd5b600082601f83011261091c57600080fd5b813567ffffffffffffffff80821115610937576109376108f5565b604051601f8301601f19908116603f0116810190828211818310171561095f5761095f6108f5565b8160405283815286602085880101111561097857600080fd5b836020870160208301376000602085830101528094505050505092915050565b6000602082840312156109aa57600080fd5b813567ffffffffffffffff8111156109c157600080fd5b6109cd8482850161090b565b949350505050565b80356001600160a01b03811681146109ec57600080fd5b919050565b60008060008060808587031215610a0757600080fd5b610a10856109d5565b9350610a1e602086016109d5565b9250604085013567ffffffffffffffff811115610a3a57600080fd5b610a468782880161090b565b925050610a55606086016109d5565b905092959194509250565b600060208284031215610a7257600080fd5b5035919050565b60008060408385031215610a8c57600080fd5b82359150610a9c602084016109d5565b90509250929050565b60005b83811015610ac0578181015183820152602001610aa8565b8381111561023e5750506000910152565b60008151808452610ae9816020860160208601610aa5565b601f01601f19169290920160200192915050565b60208152600061082b6020830184610ad1565b600080600060608486031215610b2557600080fd5b610b2e846109d5565b9250602084013567ffffffffffffffff811115610b4a57600080fd5b610b568682870161090b565b925050610b65604085016109d5565b90509250925092565b600181811c90821680610b8257607f821691505b602082108103610ba257634e487b7160e01b600052602260045260246000fd5b50919050565b6001600160a01b03831681526040602082018190526000906109cd90830184610ad1565b7f416363657373436f6e74726f6c3a206163636f756e7420000000000000000000815260008351610c04816017850160208801610aa5565b7001034b99036b4b9b9b4b733903937b6329607d1b6017918401918201528351610c35816028840160208801610aa5565b01602801949350505050565b634e487b7160e01b600052601160045260246000fd5b6000816000190483118215151615610c7157610c71610c41565b500290565b60008219821115610c8957610c89610c41565b500190565b634e487b7160e01b600052603260045260246000fd5b600081610cb357610cb3610c41565b50600019019056fe241ecf16d79d0f8dbfb92cbc07fe17840425976cf0667f022fe9877caa831b08a2646970667358221220195f5f00288ff270b950e75829db30f07179f058251bba0ac043e9fe69d8ddb364736f6c634300080d0033",
    "linkReferences": {}
  },
  "methodIdentifiers": {
    "DEFAULT_ADMIN_ROLE()": "a217fddf",
    "MANAGER_ROLE()": "ec87621c",
    "daoURI()": "7034731b",
    "getRoleAdmin(bytes32)": "248a9ca3",
    "grantRole(bytes32,address)": "2f2ff15d",
    "hasRole(bytes32,address)": "91d14854",
    "initialize(address,address,string,address)": "09c26fb1",
    "initialize(address,string,address)": "7bb7c0d8",
    "renounceRole(bytes32,address)": "36568abe",
    "revokeRole(bytes32,address)": "d547741f",
    "setURI(string)": "02fe5305",
    "supportsInterface(bytes4)": "01ffc9a7"
  },
  "id": 17
}