{
  "abi": [
    {
      "inputs": [],
      "stateMutability": "nonpayable",
      "type": "constructor"
    },
    {
      "inputs": [],
      "name": "EIP4824InterfaceNotSupported",
      "type": "error"
    },
    {
      "anonymous": false,
      "inputs": [
        {
          "indexed": false,
          "internalType": "address",
          "name": "daoAddress",
          "type": "address"
        }
      ],
      "name": "DAOURIRegistered",
      "type": "event"
    },
    {
      "anonymous": false,
      "inputs": [
        {
          "indexed": true,
          "internalType": "bytes32",
          "name": "role",
          "type": "bytes32"
        },
        {
          "indexed": true,
          "internalType": "bytes32",
          "name": "previousAdminRole",
          "type": "bytes32"
        },
        {
          "indexed": true,
          "internalType": "bytes32",
          "name": "newAdminRole",
          "type": "bytes32"
        }
      ],
      "name": "RoleAdminChanged",
      "type": "event"
    },
    {
      "anonymous": false,
      "inputs": [
        {
          "indexed": true,
          "internalType": "bytes32",
          "name": "role",
          "type": "bytes32"
        },
        {
          "indexed": true,
          "internalType": "address",
          "name": "account",
          "type": "address"
        },
        {
          "indexed": true,
          "internalType": "address",
          "name": "sender",
          "type": "address"
        }
      ],
      "name": "RoleGranted",
      "type": "event"
    },
    {
      "anonymous": false,
      "inputs": [
        {
          "indexed": true,
          "internalType": "bytes32",
          "name": "role",
          "type": "bytes32"
        },
        {
          "indexed": true,
          "internalType": "address",
          "name": "account",
          "type": "address"
        },
        {
          "indexed": true,
          "internalType": "address",
          "name": "sender",
          "type": "address"
        }
      ],
      "name": "RoleRevoked",
      "type": "event"
    },
    {
      "inputs": [],
      "name": "DEFAULT_ADMIN_ROLE",
      "outputs": [
        {
          "internalType": "bytes32",
          "name": "",
          "type": "bytes32"
        }
      ],
      "stateMutability": "view",
      "type": "function"
    },
    {
      "inputs": [],
      "name": "REGISTRATION_ROLE",
      "outputs": [
        {
          "internalType": "bytes32",
          "name": "",
          "type": "bytes32"
        }
      ],
      "stateMutability": "view",
      "type": "function"
    },
    {
      "inputs": [
        {
          "internalType": "bytes32",
          "name": "role",
          "type": "bytes32"
        }
      ],
      "name": "getRoleAdmin",
      "outputs": [
        {
          "internalType": "bytes32",
          "name": "",
          "type": "bytes32"
        }
      ],
      "stateMutability": "view",
      "type": "function"
    },
    {
      "inputs": [
        {
          "internalType": "bytes32",
          "name": "role",
          "type": "bytes32"
        },
        {
          "internalType": "address",
          "name": "account",
          "type": "address"
        }
      ],
      "name": "grantRole",
      "outputs": [],
      "stateMutability": "nonpayable",
      "type": "function"
    },
    {
      "inputs": [
        {
          "internalType": "bytes32",
          "name": "role",
          "type": "bytes32"
        },
        {
          "internalType": "address",
          "name": "account",
          "type": "address"
        }
      ],
      "name": "hasRole",
      "outputs": [
        {
          "internalType": "bool",
          "name": "",
          "type": "bool"
        }
      ],
      "stateMutability": "view",
      "type": "function"
    },
    {
      "inputs": [
        {
          "internalType": "address",
          "name": "daoAddress",
          "type": "address"
        }
      ],
      "name": "logRegistration",
      "outputs": [],
      "stateMutability": "nonpayable",
      "type": "function"
    },
    {
      "inputs": [
        {
          "internalType": "address",
          "name": "daoAddress",
          "type": "address"
        }
      ],
      "name": "logRegistrationPermissioned",
      "outputs": [],
      "stateMutability": "nonpayable",
      "type": "function"
    },
    {
      "inputs": [
        {
          "internalType": "bytes32",
          "name": "role",
          "type": "bytes32"
        },
        {
          "internalType": "address",
          "name": "account",
          "type": "address"
        }
      ],
      "name": "renounceRole",
      "outputs": [],
      "stateMutability": "nonpayable",
      "type": "function"
    },
    {
      "inputs": [
        {
          "internalType": "bytes32",
          "name": "role",
          "type": "bytes32"
        },
        {
          "internalType": "address",
          "name": "account",
          "type": "address"
        }
      ],
      "name": "revokeRole",
      "outputs": [],
      "stateMutability": "nonpayable",
      "type": "function"
    },
    {
      "inputs": [
        {
          "internalType": "bytes4",
          "name": "interfaceId",
          "type": "bytes4"
        }
      ],
      "name": "supportsInterface",
      "outputs": [
        {
          "internalType": "bool",
          "name": "",
          "type": "bool"
        }
      ],
      "stateMutability": "view",
      "type": "function"
    }
  ],
  "bytecode": {
    "object": "0x608060405234801561001057600080fd5b5061001c60003361004b565b6100467fe724a73ea485d92e6c914362ee04128d32f0adde3c608c37c81659f2271f42783361004b565b6100ea565b6000828152602081815260408083206001600160a01b038516845290915290205460ff166100e6576000828152602081815260408083206001600160a01b03851684529091529020805460ff191660011790556100a53390565b6001600160a01b0316816001600160a01b0316837f2f8788117e7eff1d82e926ec794901d17c78024a50270940304540a733656f0d60405160405180910390a45b5050565b6109d1806100f96000396000f3fe608060405234801561001057600080fd5b506004361061009e5760003560e01c806391d148541161006657806391d1485414610137578063a217fddf1461014a578063d547741f14610152578063ea5095b114610165578063fc65b8411461017857600080fd5b806301ffc9a7146100a35780630d67c955146100cb578063248a9ca3146100e05780632f2ff15d1461011157806336568abe14610124575b600080fd5b6100b66100b136600461078d565b61019f565b60405190151581526020015b60405180910390f35b6100de6100d93660046107d3565b6101d6565b005b6101036100ee3660046107ee565b60009081526020819052604090206001015490565b6040519081526020016100c2565b6100de61011f366004610807565b610240565b6100de610132366004610807565b61026a565b6100b6610145366004610807565b6102ed565b610103600081565b6100de610160366004610807565b610316565b6100de6101733660046107d3565b61033b565b6101037fe724a73ea485d92e6c914362ee04128d32f0adde3c608c37c81659f2271f427881565b60006001600160e01b03198216637965db0b60e01b14806101d057506301ffc9a760e01b6001600160e01b03198316145b92915050565b7fe724a73ea485d92e6c914362ee04128d32f0adde3c608c37c81659f2271f4278610200816103b1565b6040516001600160a01b03831681527fd7d9bc81077ae0982e04bde77b33aec8bdcda8102184b537945fe780e77102639060200160405180910390a15050565b60008281526020819052604090206001015461025b816103b1565b61026583836103be565b505050565b6001600160a01b03811633146102df5760405162461bcd60e51b815260206004820152602f60248201527f416363657373436f6e74726f6c3a2063616e206f6e6c792072656e6f756e636560448201526e103937b632b9903337b91039b2b63360891b60648201526084015b60405180910390fd5b6102e98282610442565b5050565b6000918252602082815260408084206001600160a01b0393909316845291905290205460ff1690565b600082815260208190526040902060010154610331816103b1565b6102658383610442565b6103556001600160a01b038216637034731b60e01b6104a7565b6103725760405163e311fe0960e01b815260040160405180910390fd5b6040516001600160a01b03821681527fd7d9bc81077ae0982e04bde77b33aec8bdcda8102184b537945fe780e77102639060200160405180910390a150565b6103bb81336104ca565b50565b6103c882826102ed565b6102e9576000828152602081815260408083206001600160a01b03851684529091529020805460ff191660011790556103fe3390565b6001600160a01b0316816001600160a01b0316837f2f8788117e7eff1d82e926ec794901d17c78024a50270940304540a733656f0d60405160405180910390a45050565b61044c82826102ed565b156102e9576000828152602081815260408083206001600160a01b0385168085529252808320805460ff1916905551339285917ff6391f5c32d9c69d2a47ea670b442974b53935d1edc7fd64eb21e047a839171b9190a45050565b60006104b283610523565b80156104c357506104c38383610556565b9392505050565b6104d482826102ed565b6102e9576104e1816105df565b6104ec8360206105f1565b6040516020016104fd929190610863565b60408051601f198184030181529082905262461bcd60e51b82526102d6916004016108d8565b6000610536826301ffc9a760e01b610556565b80156101d0575061054f826001600160e01b0319610556565b1592915050565b604080516001600160e01b03198316602480830191909152825180830390910181526044909101909152602080820180516001600160e01b03166301ffc9a760e01b178152825160009392849283928392918391908a617530fa92503d915060005190508280156105c8575060208210155b80156105d45750600081115b979650505050505050565b60606101d06001600160a01b03831660145b60606000610600836002610921565b61060b906002610940565b67ffffffffffffffff81111561062357610623610958565b6040519080825280601f01601f19166020018201604052801561064d576020820181803683370190505b509050600360fc1b816000815181106106685761066861096e565b60200101906001600160f81b031916908160001a905350600f60fb1b816001815181106106975761069761096e565b60200101906001600160f81b031916908160001a90535060006106bb846002610921565b6106c6906001610940565b90505b600181111561073e576f181899199a1a9b1b9c1cb0b131b232b360811b85600f16601081106106fa576106fa61096e565b1a60f81b8282815181106107105761071061096e565b60200101906001600160f81b031916908160001a90535060049490941c9361073781610984565b90506106c9565b5083156104c35760405162461bcd60e51b815260206004820181905260248201527f537472696e67733a20686578206c656e67746820696e73756666696369656e7460448201526064016102d6565b60006020828403121561079f57600080fd5b81356001600160e01b0319811681146104c357600080fd5b80356001600160a01b03811681146107ce57600080fd5b919050565b6000602082840312156107e557600080fd5b6104c3826107b7565b60006020828403121561080057600080fd5b5035919050565b6000806040838503121561081a57600080fd5b8235915061082a602084016107b7565b90509250929050565b60005b8381101561084e578181015183820152602001610836565b8381111561085d576000848401525b50505050565b7f416363657373436f6e74726f6c3a206163636f756e742000000000000000000081526000835161089b816017850160208801610833565b7001034b99036b4b9b9b4b733903937b6329607d1b60179184019182015283516108cc816028840160208801610833565b01602801949350505050565b60208152600082518060208401526108f7816040850160208701610833565b601f01601f19169190910160400192915050565b634e487b7160e01b600052601160045260246000fd5b600081600019048311821515161561093b5761093b61090b565b500290565b600082198211156109535761095361090b565b500190565b634e487b7160e01b600052604160045260246000fd5b634e487b7160e01b600052603260045260246000fd5b6000816109935761099361090b565b50600019019056fea2646970667358221220ae60f23aa11fb522036772a0e8c1a8e5b972db94e5a1bdad747a8cee4b0c626664736f6c634300080d0033",
    "linkReferences": {}
  },
  "methodIdentifiers": {
    "DEFAULT_ADMIN_ROLE()": "a217fddf",
    "REGISTRATION_ROLE()": "fc65b841",
    "getRoleAdmin(bytes32)": "248a9ca3",
    "grantRole(bytes32,address)": "2f2ff15d",
    "hasRole(bytes32,address)": "91d14854",
    "logRegistration(address)": "ea5095b1",
    "logRegistrationPermissioned(address)": "0d67c955",
    "renounceRole(bytes32,address)": "36568abe",
    "revokeRole(bytes32,address)": "d547741f",
    "supportsInterface(bytes4)": "01ffc9a7"
  },
  "id": 17
}